:020000040800F2
:100000005004002049110008691100086B11000814
:1000100000000000000000000000000000000000E0
:100020000000000000000000000000006D1100084A
:1000300000000000000000006F11000871110008AE
:100040001B07000800000000970E0008DF0F0008E3
:1000500093100008F7100008031100087911000838
:10006000000000007B1100087D1100087F110008CE
:1000700081110008831100088511000800000000AC
:10008000871100080000000000000000891100082E
:10009000000000008B1100088D1100088F1100086E
:1000A00000000000911100080000000093110008FA
:1000B000FEB5060019D0AD4C3078C00717D58027A3
:1000C000BF0260680C210140042909D060680C213E
:1000D0000140082941D160687908084088423CD134
:1000E0002068074003D07068002800D19BE1307879
:1000F00080071AD5F827FF4360680C21014007D01C
:1001000060680C21014008295AD16068C00357D4A7
:100110002068800703D5F068012800D083E12068BB
:1001200007403069C000384320603078000778D538
:100130000227F0690028606A64D0012101436162EE
:1001400000F040FA0500606A38406AD100F03AFADF
:10015000401B0228F7D90320FEBD73687908012BE4
:1001600009D0B348B34A002B09D0052B07D120682A
:100170008A000243226020680143216005E0216873
:100180000A402260216808402060706800280BD077
:1001900000F018FA050020683840A8D100F012FAE3
:1001A000401B6528F7D3D6E700F00CFA050020685D
:1001B00038409CD000F006FA401B6528F7D3CAE708
:1001C000F068002820680ED001210143216000F072
:1001D000F9F9050020688007A1D400F0F3F9401B6D
:1001E0000228F7D9B7E701218843206000F0EAF937
:1001F00005002068800798D500F0E4F9401B02282C
:10020000F7D9A8E701218843606200F0DBF9050017
:10021000606A384005D000F0D5F9401B0228F7D9B4
:1002200099E704273068384062D000200190B80672
:10023000E169014008D1E1690143E161E1690840F8
:1002400000900098012001907B480068C00512D4FE
:1002500079480068A10D01437748016000F0B2F9C8
:10026000050075480068C00505D400F0ABF9401BD7
:100270006528F6D36FE7B068012808D0002801D1BF
:10028000206A09E00528206A06D138432062206AE6
:1002900001210143216205E0012188432062206A97
:1002A000B8432062A4480090B06800280CD000F049
:1002B00089F90500206A800713D400F083F9401BF8
:1002C00000998842F6D346E700F07CF90500206AE1
:1002D000800706D500F076F9401B00998842F6D3D6
:1002E00039E70198002803D0E06994490140E161B1
:1002F0003078C0061DD57069F825ED43012837D147
:10030000606B07436763606B01210143616300F029
:1003100059F90700606B800705D400F053F9C01B42
:100320000228F7D917E7606B0540B069C000284381
:100330006063306A002878D061680C220A40082A7D
:100340005CD08027BF048D490228206848D1014035
:10035000216000F037F905002068384022D000F015
:1003600031F9401B0228F7D9F5E600BF0010024022
:100370000421C9438842606B02D101406163D2E726
:1003800007436763606B01218843606300F01AF9DB
:100390000500606B8007CCD500F014F9401B0228E3
:1003A000F7D9D8E6E06A0F218843F16A0143E16298
:1003B000606873490140B06A0843716A0143616033
:1003C000206879080143216000F0FCF805002068EE
:1003D00038402AD100F0F6F8401B0228F7D9BAE6D7
:1003E0000140216000F0EEF80500206838401CD084
:1003F00000F0E8F8401B0228F7D9ACE6012812D03B
:100400006068E16A802252020240736A9A420AD10D
:100410000907090FF26A914205D1F02189030140D1
:10042000B06A814201D00120FEBD0020FEBD000067
:10043000FFFFFBFFFFFFFEFF00700040F8B5040068
:1004400060D000914F480068C107C90F00988142F1
:100450000CD24C48016801229143009A0A43026081
:100460000068C107C90F009881424BD12168464DF1
:10047000022001420CD0490704D56968E022D2006D
:100480000A436A606968F0229143A2680A436A607D
:1004900001272168394025D06168012902D12868E7
:1004A000800303E0022903D12868800103D429E0F6
:1004B0002A68104026D0686803229043014369608F
:1004C00000F080F8060068680C2101406068800038
:1004D000814207D000F076F8801B17498842F2D39A
:1004E0000320F2BD2748009902683A4091420BD29E
:1004F0000168B943009A0A43026000680740009807
:10050000874201D00120F2BD2078400705D56868F8
:100510001E490140E0680843686000F011F81C497A
:100520006A681206120F895CC8401A4908600320E5
:1005300000F04EF80020F2BD89130000FFFFFFEF2E
:10054000154B196815480C220A40082A00D070473C
:1005500030B50F2213A48D0C1540645D9B6AC9034E
:1005600007D500BF13A11A40895C00F053F860431F
:1005700030BD20000A49484330BD0000FFFFFFFEA8
:10058000FFFFC2FF0020024000100240FFF8FFFF03
:10059000381100083C0000200410024000127A00CC
:1005A00000093D0002030405060708090A0B0C0DAB
:1005B0000E0F10100102030405060708090A0B0CB0
:1005C0000D0E0F1001484068704700BF300000203A
:1005D00038B505000D4CFA208000217800F01AF89B
:1005E00001000B48006800F015F800F077F80028CB
:1005F0000AD1042D08D2002229000020C04300F0B7
:1006000060F8A560002032BD012032BD300000201E
:100610003C000020094214D088420FD30122030C71
:1006200001D100041204002300185B418B4200D367
:100630005B1A5241F8D319001000704701000020E6
:10064000704708B500F068F808BD30B5016841187A
:10065000446862088A188368E40704D54C461B196D
:1006600001E0641C09D1914203D00C7864B2491CAA
:1006700001E00C3030BD0D78491C1D705B1C002C56
:10068000EFD4641EF7D5EEE710B5C200182313406F
:10069000FF249C40E2438907090E9940030004D4DB
:1006A00018489B089B00C01806E0174B0007000F76
:1006B000083880088000181803681A401143016048
:1006C00010BD80B5FFF7E0FF01BDBFF34F8F0F48AE
:1006D0000F490860BFF34F8F00BFFDE710B5401E04
:1006E00080214904884201D3012010BD094C60607B
:1006F00003210020C043FFF7C7FF0020A0600721AF
:10070000216010BD00E400E01CED00E00400FA05EB
:100710000CED00E010E000E07047FEE7F8B50122C4
:100720000221C24800F05EFA9024E4050122910201
:10073000200000F057FAFA277F00380000F064FA32
:100740008026B60001223100200000F04BFAB84D9F
:1007500001220221280000F045FA380000F054FA86
:1007600000220221B14800F03DFA00227100200071
:1007700000F038FA00223100200000F033FA0022A5
:100780000221280000F02EFAF1BD38B504000D005A
:1007900000F08FFAA74800210160446001218160C8
:1007A00001000C3100F0F6FA002801D0FFF78DFFB0
:1007B0002A8800232100012000F03AFA002801D005
:1007C000FFF783FF00F084FA31BD1CB59A4800683A
:1007D00069460880994C68460078002804D12100B9
:1007E0009548FFF7D2FF02E068460088208000208D
:1007F00000F06FF8012000F007FA207800F069F8A7
:1008000013BD70B500248D4D9026F60501213000F2
:1008100000F0E2F9002824D1A878002821D1012095
:10082000A870642000F0F0F90121300000F0D4F944
:10083000002822D1E878401CC1B200290BD004293D
:1008400009DCE870002000F044F8E87800F041F896
:10085000E878287003E00020E87000F03AF8AC80F7
:1008600070BDFFF7AFFEA968401A96214900884283
:1008700003D3FFF7A7FEA860AC7070BD1CB56F4C2A
:10088000FFF7A0FEE168401AFA218900884205D3EB
:10089000FFF798FEE060A088401CA080E0686849EF
:1008A000884201D3FFF711FFA088B4214900884294
:1008B0000EDB614800686946088068460078217848
:1008C000884203D021005C48FFF75FFF0020A08032
:1008D00013BDF8B58027FF007E08544D9024E40531
:1008E000002800D181E0022821D003D304285CD065
:1008F00039D3F1BD00220421200000F073F9002259
:100900000221200000F06EF900228021200000F07A
:1009100069F900224021200000F064F90022202122
:10092000200000F05FF901220221280079E0002276
:100930000421200000F056F901220221200000F0DD
:1009400051F901228021200000F04CF900224021C1
:10095000200000F047F900222021200000F042F999
:10096000012231001FE001220421200000F03AF9A9
:1009700000221021200000F035F90022082120007B
:1009800000F030F900228021200000F02BF9012234
:100990004021200000F026F900222021200000F054
:1009A00021F90122390020003BE00122042120002E
:1009B00000F018F900221021200000F013F90122A4
:1009C0000821200000F00EF901228021200000F013
:1009D00009F901224021200000F004F90022202121
:1009E000200000F0FFF8012219E00122042120007C
:1009F00000F0F8F801221021200000F0F3F80022A6
:100A00000221280000F0EEF800223100200000F062
:100A1000E9F800223900200000F0E4F80022022169
:100A2000034800F0DFF8F1BD0000000000040048BA
:100A30000014004840000020004000082000002072
:100A4000803A0900FFB500220F2302932CE0052411
:100A500002E0674DA842FAD16D462D78AC40344390
:100A6000019D2C60634CA668DC4326404D68ED0276
:100A700000D51E435F4DAE60EE6826404F68BF0252
:100A800000D51E43EE606E6826404F68BF0300D558
:100A90001E436E602E6834404E68F60302D5260071
:100AA0001C0034432C60521C0B681C00D44000D145
:100AB00091E0012494402340F5D055000327AF4036
:100AC000FE4301964E68B707BF0F012F03D0B6074C
:100AD000B60F022E0ED18768019E3E40CF68AF4010
:100AE000374387604668A6434C68E706FF0F974088
:100AF0003743476094006E4674700C79A407A40FC6
:100B0000032C26D0C468019E26408C68AC40344338
:100B1000C4600C79A407A40F022C1AD1D408A40035
:100B20000419266A03966E4677781C263E406F4667
:100B30003E70039EB446029F6E463678B7406646C6
:100B4000BE43B4460F696E463678B74066463743B3
:100B5000276207680324019E3E404F682740BC4639
:100B60002F006546BD40354305604D6826042E4084
:100B700099D00125204E36682E431F4F3E603E46D9
:100B800036682E400196019E1C4E9708BF00F6194C
:100B90000196019E366803966E4677780C263E4095
:100BA0006F463E70039EB446029F6E463678B7404D
:100BB0006646BE439027FF05B84201D100244BE7AB
:100BC0000F4FB84201D1012446E70E4DA84200D094
:100BD0003FE7022440E7FFBD0069084000D0012044
:100BE000C0B27047002A01D08161704781627047AE
:100BF000000C0048000401401810024008000140A9
:100C0000000400480008004838B50500FFF7DAFC8A
:100C100004000020C043854202D0044800782D180B
:100C2000FFF7D0FC001BA842FAD331BD30000020F2
:100C3000F1B582B00F0014001D005048007E01285D
:100C400001D10220FEBD01264C490E763D4800F040
:100C500051F8010029D10299012901D1012204E0B2
:100C6000022901D1022200E004223B0026002F00CD
:100C700000931500002400E0641CAC4215DA30003B
:100C80003900220100F0F8F881B200986200801863
:100C900000F025F82B4800F02DF8394909680122A9
:100CA0009143374A11600100E6D00021334A1176A2
:100CB000FEBD002034498022CB68134007D0334B5F
:100CC0000B60334B0B60C9680A4000D001207047AD
:100CD0002B48016880220A4302600020704710B54B
:100CE0000022264BDA61264A136801241C43146053
:100CF000018010BD70B50500FFF764FC0600214CB3
:100D00002068C0070CD50020C0438542F8D0002DD4
:100D100004D0FFF757FC801B8542F1D2032070BD41
:100D200020202168014000D020602068C00602D445
:100D30002068400703D500F007F8012070BD0020AF
:100D400070BD000050C3000030B500220B481023D6
:100D50000C490C681C4004D0C26902241443C461CD
:100D6000102204230C681C4006D0C46901252543C9
:100D7000C5611000042202430A6030BD000000205B
:100D8000102002400C20024004200240230167454D
:100D9000AB89EFCDF3B581B0012101262A4C227E2B
:100DA000012A01D10220FEBD00902176274D284F57
:100DB0000098006801280FD13800FFF79BFF00283A
:100DC00031D100F034F83800FFF794FF06002868AE
:100DD00004218843286026E03800FFF78BFF0028B5
:100DE00021D102980021C943016000994E68029008
:100DF000012001E051027618009989688902009A61
:100E0000526889188E420DD2300000F023F8380065
:100E1000FFF770FF29680222914329600100E9D0A1
:100E200002990E600600002020763000FEBD0020F2
:100E30000549C8610548016804220A430260016847
:100E400040220A4302607047000000201020024048
:100E500050C300000021064AD16106490A680223F6
:100E600013430B6048600868402202430A607047E1
:100E70000000002010200240D2B2203A03D3080024
:100E8000D040002170472032D141D04048409140AD
:100E9000D14048407047FEE7F8B586B000F0A0F8B2
:100EA00000F070F814220021684600F0A9F88021B3
:100EB000C903304802680A43026002681140059184
:100EC00005998021890202680A4302600268114084
:100ED000059105998021C90202680A4302600068F1
:100EE000014005910598002202212348FFF77AFE70
:100EF0009027FF05002221493800FFF773FE0022EA
:100F000002211F48FFF76EFE02260096012401947D
:100F100000250295039569461748FFF793FD009455
:100F20000195029569463800FFF78CFDFE20009080
:100F300001940294039569463800FFF783FD0096FB
:100F400001940295039569460D48FFF77BFDC0208B
:100F5000C000009001940295039569463800FFF7A0
:100F600071FDFFF7DBFBFFF730FCFFF74AFCFFF7F3
:100F700085FCFAE71410024000140048FE06000049
:100F80000004004810B590B03022002104A800F001
:100F900037F810220021684600F032F80220049051
:100FA000012007901020089000240C9404A8FFF75B
:100FB0007FF8002801D000F010F80720009001947D
:100FC00080200290039400216846FFF737FA00283A
:100FD00001D000F002F810B010BD72B6FEE7FEE7D7
:100FE00080B50648016810220A4302600320FFF71B
:100FF000EFFA00F00FF8002002BD000000200240D0
:1010000010B50400080011000200200000F01AF8DA
:10101000200010BD81B0012009490A6802430A601E
:101020000A68104000900098802040054A680243FA
:101030004A60496808400090009801B0704700BFBE
:10104000181002401206130A1A43130C1A4300BF69
:10105000094205D0830705D00270401C491EF9D112
:10106000704700001300103906D330B41400150087
:1010700010393CC0FCD230BC490700D30CC000D5AD
:1010800004C0890002D30280801C002900D50270B0
:101090007047FEE710B5074979441831064C7C4487
:1010A000163404E0081D0A68891888470100A14227
:1010B000F8D110BD08000000140000008FF5FFFFFC
:1010C000D4000000260000000000002000F00DF811
:1010D000002801D0FFF7DEFF00BF00BF002000BFE7
:1010E00000BFFFF7D9FE00F002F80120704780B57D
:1010F00000F002F801BDFEE70746384600F002F8AE
:10110000FBE7FEE780B500BF00BF024A11001820D0
:10111000ABBEFBE7260002000548014603B4684663
:1011200080F3098800BF00BF00BF00BFFFF7CEFFFC
:10113000A5EDF5FE70470000000000000000000073
:1011400001020304060708090148804701480047D7
:101150003511000819110008024841680278891801
:101160004160704730000020FEE7FEE7704770479F
:1011700080B5FFF7F1FF01BDFEE7FEE7FEE7FEE702
:10118000FEE7FEE7FEE7FEE7FEE7FEE7FEE7FEE737
:10119000FEE7FEE7E000FE01F2000001F9000004B6
:0711A000FC0001127AEF00D0
:0400000508001119C5
:00000001FF
